:060000000A128A11FC2F18
:100F7E0083160313860183120313860106141A3097
:100F8E00F2005E30F1006E30F000F00BCC2FF10B62
:100F9E00CC2FF20BCC2F00008312031306108614F5
:100FAE000B30F2002630F1005D30F000F00BDD2F3B
:100FBE00F10BDD2FF20BDD2FE42F831203138610BE
:100FCE0006151A30F2005E30F1006E30F000F00BB4
:100FDE00EE2FF10BEE2FF20BEE2F00008312031308
:100FEE000611C52F0A128A11002883010A128A11CE
:020FFE00BF2F03
:08400000FF3FFF3FFF3FFF3FC0
:04400E00D420FF3F7C
:00000001FF
